:020000040800F2
:10000000B006002089010008910300088903000858
:100010008D03000865020008B50A00080000000012
:100020000000000000000000000000001D060008A5
:100030006902000800000000D90500083107000827
:10004000A3010008A3010008A3010008A301000800
:10005000A3010008A3010008A3010008A3010008F0
:10006000A3010008A3010008A3010008A3010008E0
:10007000A3010008A3010008A3010008A3010008D0
:10008000A3010008A301000845020008A30100081D
:10009000A3010008A3010008A3010008A3010008B0
:1000A000A3010008A3010008A3010008A3010008A0
:1000B000A3010008A3010008A3010008A301000890
:1000C000A3010008A3010008A3010008A301000880
:1000D000A3010008A3010008A3010008A301000870
:1000E000A3010008A3010008A301000800F002F822
:1000F00000F03AF80AA090E8000C82448344AAF188
:100100000107DA4501D100F02FF8AFF2090EBAE885
:100110000F0013F0010F18BFFB1A43F0010318473B
:10012000A8230000C8230000103A24BF78C878C173
:10013000FAD8520724BF30C830C144BF04680C60ED
:10014000704700000023002400250026103A28BF35
:1001500078C1FBD8520728BF30C148BF0B60704739
:100160001FB51FBD10B510BD00F031F81146FFF7E7
:10017000F7FF01F0FFF800F04FF803B4FFF7F2FFCC
:1001800003BC00F057F800000948804709480047C1
:10019000FEE7FEE7FEE7FEE7FEE7FEE7FEE7FEE737
:1001A000FEE7FEE704480549054A064B7047000094
:1001B00035070008ED000008B0000020B006002060
:1001C000B0020020B00200207047704770477546AB
:1001D00000F02CF8AE4605006946534620F00700B3
:1001E000854618B020B5FFF7DDFFBDE820404FF091
:1001F00000064FF000074FF000084FF0000B21F011
:100200000701AC46ACE8C009ACE8C009ACE8C009DD
:10021000ACE8C0098D46704710B50446AFF30080C6
:100220002046BDE81040FFF7A8BF00000048704717
:100230004C00002001491820ABBEFEE7260002005A
:100240007047000010B5034800F008F80249088024
:1002500010BD000000280140000000200146C86CCD
:1002600080B2704700BFFEE770472DE9F0410246BB
:1002700000250026002000230024002791F803C059
:100280000CF00F0591F803C00CF0100CBCF1000F3E
:1002900003D091F802C04CEA050591F800C0BCF10A
:1002A000000F31D0146800202BE04FF0010C0CFA45
:1002B00000F3B1F800C00CEA03069E4220D183008F
:1002C0004FF00F0C0CFA03F7BC4305FA03FC4CEAA1
:1002D000040491F803C0BCF1280F06D14FF0010CC3
:1002E0000CFA00FCC2F814C00AE091F803C0BCF19B
:1002F000480F05D14FF0010C0CFA00FCC2F810C0F9
:10030000401C0828D1D31460B1F800C0BCF1FF0F25
:1003100034DD546800202EE000F1080C4FF0010895
:1003200008FA0CF3B1F800C00CEA03069E4221D192
:1003300083004FF00F0C0CFA03F7BC4305FA03FCE3
:100340004CEA040491F803C0BCF1280F05D100F178
:10035000080C08FA0CF8C2F8148091F803C0BCF13C
:10036000480F07D100F1080C4FF0010808FA0CF80B
:10037000C2F81080401C0828CED35460BDE8F0813C
:10038000416170470161704700BFFEE700BFFEE7B3
:100390007047000001460148405C70474000002063
:1003A000002004E00021034A1154411CC8B209286E
:1003B000F8DB70474000002038B50446012000906B
:1003C00000201C494870012000902EE0BDF800007C
:1003D000204018B101201849086002E000201649A9
:1003E00008600120144908310860322000F09CFFA9
:1003F00000201249C1F8BC01322000F095FF012015
:100400000E49C1F8BC010846D0F8300130B10948A6
:100410004078BDF80010084306494870BDF8000058
:100420004FF6FF7101EA40000090BDF80000FF2880
:10043000CCDD38BD40000020B48121420080214243
:1004400010B5FFF7ADFF00F04FF80F48C0780E4928
:10045000097940EA01200D49088000210FE00C488D
:1004600010F81100401E012202FA00F0074A12881B
:10047000104010B9481CC0B210BD481CC1B21029B0
:10048000EDDB0020F8E7000040000020060000201F
:100490000A0000201148806940F008000F49886177
:1004A0000F48006820F470200D4908600846006875
:1004B00040F4002008600948806940F008000749BE
:1004C000886107480068C0F31300054908600846C2
:1004D0000068044908430249086070470010024060
:1004E000040C0140000030331CB5002001900120B5
:1004F000009000202449086024490878FFF75CFF39
:1005000022494878FFF758FF0220019033E001208C
:10051000009024E001201C49091D086000201C49AE
:10052000C1F8BC01322000F0FFFE01201849C1F8DB
:10053000BC010846D0F8300150B116489DF80410AF
:10054000405CBDF80010084312499DF8042088540F
:10055000BDF800004FF6FF7101EA40000090BDF8C1
:100560000000FF28D6DD322000F0DEFE9DF80400FA
:10057000401CC0B201909DF804000928C7DB01208F
:10058000014908601CBD0000B8812142080000201C
:10059000008021424000002010B500200A49086078
:1005A0000A490878FFF708FF08494878FFF704FF71
:1005B00001200749C1F8B80106484078732801D1E5
:1005C000012010BD0020FCE7B88121420800002076
:1005D00000802142400000207047000029B1064AF7
:1005E000D2690243044BDA6104E0034AD2698243D0
:1005F000014BDA61704700000010024029B1064A41
:1006000092690243044B9A6104E0034A926982436F
:10061000014B9A617047000000100240704710B50E
:1006200000F002F810BD00000CB500200190009011
:100630003348006840F480303149086000BF3048DA
:10064000006800F4003000900198401C0190009870
:1006500018B90198B0F5A06FF1D12948006800F4ED
:10066000003010B10120009001E0002000900098BF
:10067000012843D12348006840F010002149086058
:100680000846006820F0030008600846006840F053
:10069000020008601A4840681949486008464068E6
:1006A00048600846406840F48060486008464068FA
:1006B00020F47C1048600846406840F4E810486028
:1006C0000846006840F08070086000BF0C48006871
:1006D00000F000700028F9D00948406820F00300BD
:1006E000074948600846406840F00200486000BF83
:1006F0000348406800F00C000828F9D10CBD000048
:100700000010024000200240042808D14FF0E021F0
:10071000096941F004014FF0E022116107E04FF058
:10072000E021096921F004014FF0E02211617047D6
:100730007047000010B51348006840F001001149EF
:10074000086008464068104908400E49486008465D
:1007500000680E4908400B4908600846006820F40C
:10076000802008600846406820F4FE0048604FF48E
:100770001F008860FFF753FF4FF0006004490860D6
:1007800010BD0000001002400000FFF8FFFFF6FE61
:1007900008ED00E021B1028842F08002028004E00E
:1007A00002884FF67F731A400280704721B1028899
:1007B00042F00102028004E002884FF6FE731A4004
:1007C0000280704731B1B0F8442042F40042A0F8F2
:1007D000442005E0B0F84420C2F30E02A0F8442003
:1007E0007047000070B5002400220023058C4FF6EE
:1007F000FE7635400584028C8388048B4FF68F7516
:100800002C40B51E2C400D882C43751E2A400D89A6
:100810002A434D882A43144DA8420BD0134DA842B9
:1008200008D0134DA84205D0124DA84202D0124D57
:10083000A84213D14FF6F7752A404D892A434FF647
:10084000FB752A408D882A434FF6FF652B404FF6F3
:10085000FF552B408D892B43CD892B438380048307
:10086000CD888586028470BD002C01400034014093
:100870000040014000440140004801400A46002178
:10088000018B4FF6F7731940114301837047000045
:1008900070B5002400220023058C4FF6EF7635401A
:1008A0000584028C8388048B48F6FF752C404FF634
:1008B000FF452C400D884FF6FF7606EA05252C43B0
:1008C0004FF6DF752A400D8906EA05152A434D8843
:1008D00006EA05152A43154DA84202D0144DA84238
:1008E0001DD14FF67F752A404D894FF6FF7606EAF7
:1008F00005152A434FF6BF752A408D8806EA05156F
:100900002A434FF6FF352B404FF2FF752B408D8960
:1009100006EA85052B43CD8906EA85052B438380AE
:100920000483CD880587028470BD0000002C01403F
:10093000003401400A460021018B4FF2FF73194039
:100940004FF6FF7303EA0223194301837047000047
:1009500070B5002400220023058C4FF6FF66354059
:100960000584028C8388848B4FF68F752C404FF65C
:10097000FC752C400D882C434FF6FF552A400D89FD
:100980004FF6FF7606EA05252A434D8806EA052537
:100990002A43154DA84202D0144DA8421DD14FF252
:1009A000FF752A404D894FF6FF7606EA05252A4352
:1009B0004FF6FF352A408D8806EA05252A434EF674
:1009C000FF752B404DF6FF752B408D8906EA051506
:1009D0002B43CD8906EA05152B4383808483CD887C
:1009E0008587028470BD0000002C01400034014066
:1009F0000A460021818B4FF6F7731940114381831A
:100A00007047818670470187704781877047000073
:100A1000002202881D4B98420ED01D4B98420BD0ED
:100A2000B0F1804F08D01B4B984205D01A4B98422A
:100A300002D01A4B984204D14FF68F731A404B885C
:100A40001A43174B984207D0164B984204D04FF6E2
:100A5000FF431A40CB881A4302808B8883850B881A
:100A600003850A4B98420BD0094B984208D00E4B95
:100A7000984205D00D4B984202D00D4B984201D1BF
:100A80000B7A03860123838270470000002C01400B
:100A9000003401400004004000080040000C004009
:100AA000001000400014004000400140004401409C
:100AB0000048014000BFFEE700B589B00121C8022F
:100AC000FFF79CFD01210420FFF798FD0720ADF8FA
:100AD000200010208DF8230003208DF8220008A9A3
:100AE0002A48FFF7C2FBBDF820102848FFF74AFC50
:100AF0004FF4E060ADF8200018208DF823000320AB
:100B00008DF8220008A92148FFF7AFFB40F283309F
:100B1000ADF818000020ADF81400ADF81A00ADF8DB
:100B2000160005A91A48FFF773FF7020ADF80400FE
:100B30000120ADF806000020ADF80A00ADF80C0069
:100B400001A91348FFF74EFE08211148FFF796FE52
:100B500001A90F48FFF79CFE08210D48FFF7EAFEA8
:100B600001A90B48FFF7F4FE08210948FFF740FFF1
:100B700001210748FFF726FE01210548FFF70AFE7D
:100B800001210348FFF712FE09B000BD0008014033
:100B9000002C01402DE9F04781460E4615462846B7
:100BA00001F0CCF9074600221A4B01F09BF801D264
:100BB0004FF07E55284601F0C1F907460022134642
:100BC00000F056FF00D2002529464FF07E5001F07C
:100BD00005FC8046104901F035FB074601F0FEFA9E
:100BE000044676B1062E02D0072E0FD104E0A1B242
:100BF0000A48FFF706FF0AE0A1B20848FFF703FF23
:100C000005E0A1B20548FFF700FF00E000BF00BF0C
:100C1000BDE8F0870000F03F00E0F9440004004028
:100C20002DE9F04105460E4617461C463A46314628
:100C3000284600F00BF8A0B200F050FB002231462D
:100C4000284600F003F8BDE8F08100002DE9F74FD9
:100C500082B09246BAF1B40F01DD4FF0B40ABAF196
:100C6000000F01DA4FF0000A5A209AFBF0F00190D1
:100C700000F0E6FE80460022094B00F0D5FC064657
:100C80000022084B00F084FD044600F09BFC8346E4
:100C90005A46DDE90201FFF77DFF05B0BDE8F08FA0
:100CA0000000E03F0000344070B504460D460022CD
:100CB00029462046FFF7CAFF70BD000010B588B076
:100CC000044601210220FFF789FC01210C20FFF7D7
:100CD00095FCC020ADF81C0018208DF81F000320E3
:100CE0008DF81E0007A92B48FFF7BFFA0120ADF8C9
:100CF0001C0018208DF81F0003208DF81E0007A986
:100D00002548FFF7B2FA40F2CF70ADF8140040F278
:100D1000CF20ADF810000020ADF81600ADF812009D
:100D200004A91E48FFF774FE7020ADF800000120F2
:100D3000ADF802000020ADF80600ADF808006946E5
:100D40001648FFF74FFD08211448FFF797FD694645
:100D50001248FFF79DFD08211048FFF7EBFD69469B
:100D60000E48FFF7F5FD08210C48FFF741FE012171
:100D70000A48FFF727FD01210848FFF70BFD012175
:100D80000648FFF713FD06212046FFF78DFF20469A
:100D900008B010BD00080140000C014000040040F4
:100DA00070B504460D46A571A07920B1A18804480C
:100DB000FFF7E8FA03E0A1880148FFF7E1FA70BD08
:100DC00000080140016001228271026822B1012AFB
:100DD00005D0022A09D105E00122828006E0022224
:100DE000828003E00422828000E000BF00BF7047E1
:100DF000C16070472DE9F04F87B004460D46164696
:100E0000256066600020049005900690DFF8F8B039
:100E1000606801F093F807460022134600F064FE74
:100E200081468A46206801F089F807460022374B40
:100E300000F05AFE4A465346CDE9000100F0F4FBAB
:100E4000CDE9020100F0BEFB0490606801F076F885
:100E500007462F4A2F4B00F047FE81468A462068FE
:100E600001F06CF8074600222B4B00F03DFE4A468D
:100E70005346CDE9000100F0D7FBCDE9020100F0B7
:100E8000A1FB0590606801F059F80746204A234B02
:100E900000F02AFE81468A46206801F04FF8074696
:100EA00000221D4B00F020FE4A465346CDE90001CA
:100EB00000F0BAFBCDE9020100F084FB06900027A8
:100EC0001CE05846216901F0BDF9804604A850F89D
:100ED0002710404601F0B6F904A941F82700E06860
:100EE0003844032190FBF1F201FB120804A850F8EA
:100EF00027204146204600F038F87F1C032FE0DB16
:100F000007B0BDE8F08F0000A1673B3F0000F0BFD5
:100F100083C0CAA145B6EB3F0000E03F45B6EBBF3A
:100F200070B505460C46224600212846FFF762FFB1
:100F3000962000F0D3F984F000463246002128467E
:100F4000FFF758FF962000F0C9F970BD10B50446B0
:100F500004F1140000F0DCF804F1280000F0D8F8E7
:100F600004F13C0000F0D4F810BD70B504460D4605
:100F7000164625B1012D08D0022D12D10BE03146C5
:100F800004F1140000F066F80CE0314604F128008A
:100F900000F060F806E0314604F13C0000F05AF839
:100FA00000E000BF00BF70BD70B504460E46A660ED
:100FB000002505E029462046A268FFF7D6FF6D1CF4
:100FC000032DF7DB70BD2DE9F04106460F461446B0
:100FD0001D463946304600F019F82A46214630466B
:100FE000FFF708FFBDE8F0810146C868704710B5FB
:100FF000044604F1140000F099F804F1280000F010
:1010000095F804F13C0000F091F810BD01617047C3
:1010100010B50446002020606060A060E0600C48CD
:101020002061002104F1140000F08FF8A0F11404F5
:10103000012104F1280000F088F8A0F12804022121
:1010400004F13C0000F081F8A0F13C04204610BD02
:10105000CDCC4C3F2DE9F84F04468946484600F078
:101060006DFF05460022274B00F03CFE01D24FF0F9
:101070007E59484600F062FF05460022224B00F0F0
:10108000F7FC01D2DFF88490C4F81090206900F0DA
:1010900055FF05460022134600F024FE15D8012115
:1010A0002046FFF77DFE206900F048FF074600223A
:1010B000144B00F04DFE054600F084FA824651467E
:1010C00004F1080000F056F81AE000212046FFF76E
:1010D00067FE206900F032FF05460022094B00F050
:1010E00037FE074600224FF0804300F051FB824656
:1010F00000F068FA0146009004F1080000F03AF8A8
:10110000BDE8F88F0000F03F0000F0BF000080BF96
:1011100010B504460020206100212046FFF740FE64
:10112000002104F1080000F025F810BD10B50446B8
:101130000020206101212046FFF732FE4FF07E5152
:1011400004F1080000F016F810BD10B503460C4677
:1011500021461846FFF736FE034604F1080103F165
:10116000080000F051F8A0F10803002018611846AB
:1011700010BD00002DE9F04105468846404600F0CC
:10118000DDFE064600221D4B00F0ACFD01D24FF003
:101190007E58404600F0D2FE06460022134600F07C
:1011A00067FC01D24FF00008C5F804804FF07E5074
:1011B000696801F013F90746114901F043F8064642
:1011C00001F00CF804462868082804D0092807D044
:1011D0000A280FD109E0A1B20A48FFF712FC0AE081
:1011E000A1B20848FFF70FFC05E0A1B20548FFF7E0
:1011F0000CFC00E000BF00BFBDE8F0810000F03F44
:1012000000C06044002C0140016000224260704731
:1012100070B504460D4625604FF4E0710E48FFF7A7
:10122000AFF82068062804D0072807D0082810D176
:1012300009E040210848FFF7A5F80BE080210648A7
:10124000FFF7A0F806E04FF480710348FFF79AF823
:1012500000E000BF00BF70BD000C014038B504467F
:101260000620206001210820FFF7C8F94FF4E07044
:10127000ADF8000003208DF8020010208DF8030067
:1012800069460448FEF7F1FF40210248FFF77AF86B
:10129000204638BD000C014010B56FF00400FFF788
:1012A00033FA0A4800680A49B0FBF1F009490870AE
:1012B0000846007800EB4001C1EBC0104FF6FF710B
:1012C00001EAC0000449088010BD00002C00002085
:1012D00000127A0002000020040000200146114A9A
:1012E00012884A434FF0E0235A6100229A611A465D
:1012F000126942F001021A6100BF4FF0E02210694A
:1013000000F001021AB100F48032002AF5D04FF04B
:10131000E022126922F001024FF0E0231A6100225C
:101320009A617047040000200146114A12784A432E
:101330004FF0E0235A6100229A611A46126942F086
:1013400001021A6100BF4FF0E022106900F00102B3
:101350001AB100F48032002AF5D04FF0E022126971
:1013600022F001024FF0E0231A6100229A617047D7
:10137000020000209EB0FFF78FFFFFF79DFBFFF7F5
:1013800089F809A8FFF744FE08A8FFF767FF07A838
:10139000FFF794FC002400250026002703E101202C
:1013A000FFF79CFFFFF7F8F800287DD03C20FFF7FF
:1013B00095FF0720FEF7EEFF80460820FEF7EAFFC4
:1013C00081460520FEF7E6FF82460620FEF7E2FF93
:1013D0008346FFF735F80690A8F17F0000F01AFF6A
:1013E0004FF08641059000F037FE0446A9F17F00DA
:1013F00000F026FB00226C4BCDE9000100F074FBED
:1014000000226A4BCDE9020100F0C2F9CDE90401E6
:1014100000F0D8F80546AAF17F0000F0FBFE4FF07F
:101420008641059000F018FE0646ABF17F0000F003
:1014300007FB00225C4BCDE9000100F055FB0022C8
:101440005A4BCDE9020100F0A3F9CDE9040100F007
:10145000B9F807462946284600F0F4FE21460290D6
:10146000204600F0EFFE0190029900F093FD0390FA
:1014700000F064FD4E4A4F4BCDE9040100F0F8FA4C
:1014800024D23946384600F0DDFE3146029030461F
:1014900000F0D8FE0190029900F07CFD039000F06E
:1014A0004DFD434A444B00E07AE0CDE9040100F0F1
:1014B000DFFA03D209A8FFF79AFD0DE03B4632465A
:1014C0004FF07C5109A8FFF77EFD05E02B46224630
:1014D0003A4909A8FFF777FD0698401F0C285ED20D
:1014E000DFE800F0505D5D56181D060F22304C3EBF
:1014F0003C20FFF7F3FE4FF07C5109A8FFF754FDA5
:101500004DE03C20FFF7EAFE4FF03F4109A8FFF70E
:101510004BFD44E0294909A8FFF746FD3FE0284973
:1015200009A8FFF741FD3AE0002109A8FFF760FC98
:1015300009A8FFF759FD801D0146059008A8FFF78F
:1015400067FE2CE0012109A8FFF752FC09A8FFF76C
:101550004BFD801D0146059008A8FFF759FE1EE0CF
:10156000022109A8FFF744FC09A8FFF73DFD801DF3
:101570000146059008A8FFF74BFE10E009A8FFF709
:10158000E5FC0CE04FF07E5109A8FFF7C9FC06E02E
:10159000C823B422062107A8FFF742FB00BF02E0E0
:1015A00009A8FFF724FDFAE60000F0BF0000604044
:1015B0007B14AE47E17A843FE17AA43FCDCC4C3F27
:1015C000CDCC4CBF21F00042A2F16052B2F5801F99
:1015D00001F0004328BFD2F17F6C0BD95FEA001CF9
:1015E00043EAC20242EB507018BF704728BF20F098
:1015F00001007047B2F5801FBCBF184670474FEA24
:10160000410C1CF5001F02D2084600F0E2BE70B586
:1016100000F014FB00000089FFF7F6BF4FF0004018
:10162000A0F580007047000010B591EA030F48BF95
:1016300083F0004300F1A083841A71EB030C05D200
:10164000121943EB0C03001B61EB0C01DFF824E1E2
:101650004FEA1154A4EB135C1EEA430F18BF9EEA35
:10166000445F73D023EA0E03DCF1200E21EA04511B
:1016700043F4801332D322FA0CFE10EB0E0023FA4F
:101680000CFE41EB0E01CCF1200E03FA0EFE10EB26
:101690000E0051F10001B1F5801FCCF1200E32D2C5
:1016A00001EB045112FA0EF2BDE8104058BF70472A
:1016B000401C38BF5FEA420218BF7047002814BFC1
:1016C00020F0010041F100014FEA410313F5001F32
:1016D00038BF7047A1F1C04100F0FEBA012A43EBC8
:1016E0000302ACF1200CDCF11F0E32BF4FF0000EF4
:1016F00023FA0CF310EB030041EB0451B4EB115F40
:10170000D0D0A1EB045101F5801149085FEA300007
:1017100001EB04510ED350F1000038BF12FA0EFE57
:1017200008D1BDE81040C9E7401C38BF5FEA42025B
:10173000CAD1C3E7BDE810404FEA410313F5001FCB
:1017400038BF7047A1F1C04100F0C6BA9EEA445FBD
:1017500008D011EA5E0FBDE8104004BF01F000415F
:1017600000207047BDE8104070B500F067FA00BF78
:1017700064FBBE3E0000E0FF491058BFC1F140418C
:101780005B1058BFC3F140438B42EFF300807047BA
:101790002DE9C04130B4DFF8A0C23CEA111418BFF3
:1017A0003CEA131400F0EC8081EA03051CEA1114F2
:1017B00044EAD57418BF1CEA131500F0C780A4EBE7
:1017C00005044FF0004545EAC12145EAC32341EA3B
:1017D000505143EA525304F17F74994204F50034A6
:1017E0004FEAC0204FEAC22208BF904200F09C801E
:1017F0004FEA13650FF24016765D4FEA134506FB7C
:1018000005F7C7F1807706FB07F74FEAD737A7FB45
:1018100003687642C8F58038A7FB06CE38BFA8F12A
:10182000010807FB08E64FF0000EA6FB028CE6FB62
:1018300003CEDCF1000CCEF1004E38BFAEF1010E4C
:10184000A6FB0C584FF000074FF00005E6FB0E8793
:10185000A1FB08C6A0FB07CE16EB0E0645F100055E
:10186000E1FB076515F1E04E7EBFA4F580345FEA29
:1018700046066D4116F1800745F100054FEA17272E
:101880004FEA066647EA0567A6F1DE46B6F1805FD5
:101890004FEA15251FD9384624F0010C05EBC47119
:1018A000BCF1FE6F01EB0C1102D8F0BCBDE8008169
:1018B00024425CBF01F5801E9EEAC47F02D4F0BCC6
:1018C000BDE80081244238D4F0BCA1F1C041BDE89C
:1018D000004100F001BA4FEAD22242EA43524FEAF5
:1018E000D323A7FB02864FEAD02040EA415007FBF2
:1018F00003661EEA0E0F4FEAD12105FB026658BFB0
:10190000A6EB0056B6EB00564FEA520E4EEAC37EE7
:1019100018EB0E0E56EB530EBDD518EB02085E41C8
:101920007F1C55F10005B6E74FF480154FF0000716
:101930004FF000064FF00008ADE7F0BC4FF000009C
:1019400001F1C04101F00041BDE8008111EA0C1F26
:101950000CEA131500D00CE013EA0C1F00F02580F0
:101960004FF00000F0BC81EA030101F00041BDE846
:101970000081F0BCBDE8004181EA030100F0ACB990
:10198000F0BCBDE8004170B500F058F9097EFC3E9E
:1019900000F007B881EA03014FF0000001F00041B8
:1019A000704781EA030100F097B9F0BCBDE800413F
:1019B0004FF0000021497047FFFDFBF9F7F5F4F205
:1019C000F0EEEDEBE9E8E6E4E3E1E0DEDDDBDAD8DA
:1019D000D7D5D4D3D1D0CFCDCCCBCAC8C7C6C5C438
:1019E000C2C1C0BFBEBDBCBBBAB9B8B7B6B5B4B34F
:1019F000B2B1B0AFAEADACABAAA9A8A8A7A6A5A43A
:101A0000A3A3A2A1A09F9F9E9D9C9C9B9A999998FD
:101A10009797969595949393929191908F8F8E8EA0
:101A20008D8C8C8B8B8A898988888787868585842D
:101A300084838382828181800000FF070000F87F19
:101A400010F0004248BF4042B0FA80F310FA03F1B0
:101A50000AD0C3F11D0303F580634FEA415002EB46
:101A6000035202EBD12170474FF000007047000095
:101A700051EA030C17D41CF5801F58BFBCF5801F1A
:101A800000F10680994218BF704708BF9042704726
:101A900007D711F5801F58BF13F5801F19D499423D
:101AA0007047894270471CF5801F08D5BCF5801F20
:101AB000F7D58B4218BF704708BF824270474FF47A
:101AC000001C1CEB410F38BF1CEB430F01D28B42B3
:101AD000704770B500F0B2F8922449004FF0005101
:101AE0004FF08053FFF748BEDFF848C170B51CEADD
:101AF000111E1EBF1CEA13159EEA0C0F95EA0C0F6F
:101B000000F06F8081EA030423EA4C134EEAD47E8E
:101B100021EA4C1141F4801143F48013AE44A1FB3F
:101B2000024CA0FB0365AEF17F7E361955EB0C0528
:101B3000A1FB034C4CF10003A0FB021C16EB0C06AE
:101B4000654153F10003094218BF46F0010613F442
:101B5000007F0BD14FEA03314FEA0530340341EAED
:101B6000155140EA16506FF003020AE04FEAC32114
:101B70004FEAC520F40241EA555140EA56506FF051
:101B8000020202EB2E4201EB025585EACE710AD029
:101B90005FEA440C18BF24F0004450F1000041F10A
:101BA000000120EAD47040F2FE7C624500D270BD94
:101BB000A84214BF4FF080444FF04044002E08BFAD
:101BC0000024BEF1806FA8BFA1F1C041BDE8704004
:101BD00080F282804FF0000001F1C04101F000412D
:101BE00070479EEA0C0F0CEA131518BF95EA0C0F0C
:101BF00006D04FF0000081EA030E0EF0004170BDE8
:101C000000F01CF88900013E00F007B800F009B8A8
:101C10004FEA430C5FEA5C5C08D081EA030100F004
:101C20005BB84FEA410C5FEA5C5CF6D14FF0000014
:101C3000014970470000FF070000F87F0EF1020E17
:101C40002EF0030E5EF8046B364205D4012A43EBF6
:101C5000030515F5001F12D8012841EB010C1CF5F6
:101C6000001F0CD80ED14FEAD17C15F5001F0CEBEC
:101C70004C0C0CF1020C08BF4CEBD37C04E04FF091
:101C8000080C01E04FEAD37C0CEB4C0526FA05F674
:101C900006F00706B6F1040C06D20EEB860CBDE882
:101CA00070404CF0010C6047DFE80CF0090B0202B9
:101CB0004FF000414FF00000A1F5002170BD194622
:101CC0001046012851EB010418BFD4F5001484BF5D
:101CD000002001F0004170BD0808A0F500114FEA96
:101CE0003101704753EA010C17D41CF5801F58BF0F
:101CF000BCF5801F00F106808B4218BF704708BFFB
:101D00008242704707D713F5801F58BF11F5801F17
:101D100019D48B4270479B4270471CF5801F08D531
:101D2000BCF5801FF7D5994218BF704708BF904295
:101D300070474FF4001C1CEB430F38BF1CEB410FE6
:101D400001D2994270470FB40CBC03BCFFF7C1BE6F
:101D500091EA030F10B581F000413FF56DAC83F0BF
:101D6000004300F009B8000010B591EA030F48BF26
:101D700083F000433FF560AC841A71EB030C07D28B
:101D800012198CF0004C43EB0C03001B61EB0C01AF
:101D9000DFF8A4E14FEA1154A4EB135C1EEA430FF1
:101DA00018BF9EEA445F00F0B08023EA6E035242FF
:101DB00021EA0451C3EB6E0338BF5B1EDCF1200E39
:101DC00025D322FA0CFE10EB0E0043FA0CFE41EB79
:101DD0000E01CCF1200E03FA0EFE10EB0E0051F1B5
:101DE0000001CCF1200E29D412FA0EF201EB0451BD
:101DF000BDE8104058BF7047401C1CBFB2F1004FF7
:101E0000704700280CBF491C20F00100704712EBFE
:101E1000020E43EB030218BF4FF0010E4EEA4202DE
:101E2000ACF1200CDCF11E0E54D943FA0CFE10EB81
:101E30000E0051F1FF31CCF11E0ED5D50EF1010E81
:101E400012FA0EFE404141EB010101EB445C5FEAF6
:101E50005C5C10D910EBDE7001EB045138BFBEF1B1
:101E6000004FBDE8104018BF704700280CBF491C48
:101E700020F00100704730D24FEAD42C11F5001148
:101E800024F400641BD0B1FA81F20B3AA41AA41E08
:101E9000D2F12003914030FA03F31943904001EB53
:101EA000CC71002C01EB0451BDE81040A8BF704775
:101EB00001F1C0414FF0000001F000417047B0FA5D
:101EC00080F310FA03F100D110BDE41A173C480565
:101ED000C90AE4E701EB045110BD491001EB0451BC
:101EE000BDE810404FEA300002E04FF000017047BB
:101EF0004A0008BF0042F8D0B2F5001F28BF704763
:101F000001F000414FF0000070479EEA445F07D0A7
:101F100011EA5E0FBDE8104004BF002100207047A9
:101F2000BDE8104070B5FFF789FE00BF40DFF63E08
:101F300083F00041104670470000E0FF43004FEA85
:101F4000D30C4FEA3C0C43401FBF40070CF16051DB
:101F500013F0FE4F70471CF0006F03D100200CF00F
:101F6000004170470CF0004343EA507010B540EA5E
:101F7000CC0000F0E8F900BF000000924FEA000139
:101F8000FFF7AABE4FF000414FF00000A1F500217D
:101F90007047000090EA010F48BF81F0004100F156
:101FA0002482421A3CBF801A89184FEAD0524FF05F
:101FB0007F4C1CEA410FA2EBD15318BF9CEA026F81
:101FC00000F03B804FF0004C4CEA00204CEA01212D
:101FD00021FA03FC10EB0C0C1ED202F1FF325FEA77
:101FE0001C2040EBC25038BF70471CF07F0F4FEAF7
:101FF000400C18BFBCF17F4F38BF7047C3F12003BE
:10200000994008BF20F00100BCF17F4F38BF7047F6
:10201000A0F1C04000F0DDB94FEA3C00000A40EBFF
:10202000C25028BF1CF0FF0F4FEA400CE6D018BF8B
:10203000BCF17F4F38BF7047EAE79CEA026F05D0DA
:1020400010EA5C0F08BF00F00040704710B500F0C8
:102050007AF900BF64FBBE3E4FF47F0C1CEAD0123D
:102060001EBF1CEAD11392EA0C0F93EA0C0F00F08A
:10207000858090EA010F48BF42F4807240F4000C62
:1020800041F400002CF07F4120F07F4000B58142F8
:10209000A2EB03020FF2081CACEB504EC0F10000A3
:1020A0009EF800E04FEA4E0E00FB0EFC38BF4900E0
:1020B0004FEA2C1C02F5FA020CFB0EF34FEACE1E7F
:1020C0004FEA112C4FEAC1210EEB635E42EB224234
:1020D0000EFB0CFC4FEA1C5300FB03114FEA112CC2
:1020E0004FEA01310EFB0CFC4FEADC4C00FB0C11FB
:1020F000C14228BF09184CEB03335DF804EB10EB29
:10210000410143EBC250B2F57C0F38BF704729D56F
:1021100012F0F00F1CBF00F1C04000F0004070470B
:10212000008182838485868788898B8C8D8E8F91B0
:102130009293959697999A9C9D9FA0A2A3A5A7A8D4
:10214000AAACAEB0B2B3B5B7B9BCBEC0C2C5C7C900
:10215000CCCED1D4D7D9DCDFE2E6E9ECF0F3F7FA64
:10216000FE0000004FEA400C0CF1807CBCF17E4F79
:1021700028BF7047B0F1C04000F02BB990EA010FC2
:102180000CEAD11348BF42F48072624538BF634500
:1021900007D213F47F0F16D080EA010000F0004050
:1021A000704710B500F0CFF8097EFC3E00F005B88E
:1021B00080EA010000F00040704780EA010000F072
:1021C000004000F006B912F47F0F04BF02487047C8
:1021D00080EA010000F0FDB80000C07F41000B0E56
:1021E000D3F19E0208D950F400034FEA032323FAE7
:1021F00002F048BF4042704710B500F0A4F800BF9D
:1022000049922480002070476FF0004282EA20004B
:102210007047000010F0004148BF4042B0FA80F320
:1022200010FA03F2C3F19D030BD051EAC35101EB45
:102230001220530638BF704700F1010008BF20F09C
:10224000010070474FF47F0C1CEAD0121EBF1CEA3D
:10225000D11392EA0C0F93EA0C0F00F0478090EA3A
:10226000010F48BF42F480724FF0004C4CEA00204E
:102270004CEA012102EB0302A0FB0113A2F50002CC
:10228000002918BF43F001035B0028BF4FEA330366
:1022900042EB22425FEA132C4CEBC2502EBFBCEB48
:1022A000436FB2F57C0F70474FEA036CBCF1004FEF
:1022B00008BF20F00100B2F57C0F38BF70470BD586
:1022C00082F0FF0212F5803FC8BF704700F1C040A6
:1022D000D8BF00F00040704700F5000C5FEA4C0CDE
:1022E00048BF7047B0F1C04000F073B890EA010FEA
:1022F0000CEAD11348BF42F48072624538BF63458F
:1023000004D280EA010000F00040704710B500F0F0
:102310001AF800BF8900013E00F007B800F009B8C4
:102320005FEA410C5FEA1C6C08D080EA010000F013
:1023300050B85FEA400C5FEA1C6CF6D14FF00040E9
:10234000A0F5800070470EF1020E2EF0030E5EF82D
:10235000044B244204D44FEA4102B2F17F4F11D81A
:102360004FEA4003B3F17F4F0CD80ED14FEAD07C37
:10237000B2F17F4F0CEB4C0C0CF1020C08BF4CEB94
:10238000D17C04E04FF0080C01E04FEAD17C0CEB6B
:102390004C0324FA03F404F00704B4F1040C06D24D
:1023A0000EEB840CBDE810404CF0010C6047DFE8F8
:1023B0000CF0070802024FF00040A0F5800010BDAD
:1023C0000846420018BFD2F1807288BF00F000407A
:1023D00010BDFF2141EAD050C005704790EA010FBF
:1023E00048BF81F000413FF5DCAD421A04D882F0CD
:1023F0000042A0EB020011444FEAD0524FF07F4C54
:102400001CEA410FA2EBD15318BF9CEA026F4AD0DD
:102410004FF0004C4CEA00204CEA012121FA03FC69
:10242000B0EB0C0C0FD412F0FE0F36D05FEA4C006C
:102430001DD5001240EBC25038BF70471CF03F0F53
:1024400018BF70470BE0A2F101025FEA1C2040EBCD
:10245000C25038BF70471CF07F0F18BF7047C3F1E0
:102460002003994014BF401E20F0010070478008EF
:102470004FEA122308BF7047B0FA80FCA2EB0C02AF
:10248000CCF1280C60FA0CF093EA122F04BF00EB99
:10249000C25070474FEAC3707047130A5FEADC10FE
:1024A00008BF7047F6E79CEA026F04D010EA5C0FA1
:1024B00008BF0020704710B5FFF745FF40DFF63E2C
:1024C00081F0004070470000E82400080000002070
:1024D00040000000280100082825000840000020D6
:1024E0007006000044010008000000000000000029
:1024F000014201000200030004000500060007007D
:10250000080009000A000B000C000D000E000F006F
:102510001000000000A24A040000000000000000BB
:0825200001020304060708098B
:04000005080000ED02
:00000001FF
